{
  "abi": [
    {
      "inputs": [],
      "stateMutability": "nonpayable",
      "type": "constructor"
    },
    {
      "inputs": [],
      "name": "CannotSellZeroTokens",
      "type": "error"
    },
    {
      "inputs": [],
      "name": "ERC1167FailedCreateClone",
      "type": "error"
    },
    {
      "inputs": [
        {
          "internalType": "address",
          "name": "spender",
          "type": "address"
        },
        {
          "internalType": "uint256",
          "name": "allowance",
          "type": "uint256"
        },
        {
          "internalType": "uint256",
          "name": "needed",
          "type": "uint256"
        }
      ],
      "name": "ERC20InsufficientAllowance",
      "type": "error"
    },
    {
      "inputs": [
        {
          "internalType": "address",
          "name": "sender",
          "type": "address"
        },
        {
          "internalType": "uint256",
          "name": "balance",
          "type": "uint256"
        },
        {
          "internalType": "uint256",
          "name": "needed",
          "type": "uint256"
        }
      ],
      "name": "ERC20InsufficientBalance",
      "type": "error"
    },
    {
      "inputs": [
        {
          "internalType": "address",
          "name": "approver",
          "type": "address"
        }
      ],
      "name": "ERC20InvalidApprover",
      "type": "error"
    },
    {
      "inputs": [
        {
          "internalType": "address",
          "name": "receiver",
          "type": "address"
        }
      ],
      "name": "ERC20InvalidReceiver",
      "type": "error"
    },
    {
      "inputs": [
        {
          "internalType": "address",
          "name": "sender",
          "type": "address"
        }
      ],
      "name": "ERC20InvalidSender",
      "type": "error"
    },
    {
      "inputs": [
        {
          "internalType": "address",
          "name": "spender",
          "type": "address"
        }
      ],
      "name": "ERC20InvalidSpender",
      "type": "error"
    },
    {
      "inputs": [],
      "name": "InvalidInitialization",
      "type": "error"
    },
    {
      "inputs": [],
      "name": "MetadataEmpty",
      "type": "error"
    },
    {
      "inputs": [],
      "name": "NotInitializing",
      "type": "error"
    },
    {
      "inputs": [],
      "name": "PlatformFeeReceiverEmpty",
      "type": "error"
    },
    {
      "anonymous": false,
      "inputs": [
        {
          "indexed": true,
          "internalType": "address",
          "name": "owner",
          "type": "address"
        },
        {
          "indexed": true,
          "internalType": "address",
          "name": "spender",
          "type": "address"
        },
        {
          "indexed": false,
          "internalType": "uint256",
          "name": "value",
          "type": "uint256"
        }
      ],
      "name": "Approval",
      "type": "event"
    },
    {
      "anonymous": false,
      "inputs": [
        {
          "indexed": false,
          "internalType": "uint64",
          "name": "version",
          "type": "uint64"
        }
      ],
      "name": "Initialized",
      "type": "event"
    },
    {
      "anonymous": false,
      "inputs": [
        {
          "indexed": true,
          "internalType": "address",
          "name": "from",
          "type": "address"
        },
        {
          "indexed": true,
          "internalType": "address",
          "name": "to",
          "type": "address"
        },
        {
          "indexed": false,
          "internalType": "uint256",
          "name": "value",
          "type": "uint256"
        }
      ],
      "name": "Transfer",
      "type": "event"
    },
    {
      "inputs": [
        {
          "internalType": "address",
          "name": "owner",
          "type": "address"
        },
        {
          "internalType": "address",
          "name": "spender",
          "type": "address"
        }
      ],
      "name": "allowance",
      "outputs": [
        {
          "internalType": "uint256",
          "name": "",
          "type": "uint256"
        }
      ],
      "stateMutability": "view",
      "type": "function"
    },
    {
      "inputs": [
        {
          "internalType": "address",
          "name": "spender",
          "type": "address"
        },
        {
          "internalType": "uint256",
          "name": "value",
          "type": "uint256"
        }
      ],
      "name": "approve",
      "outputs": [
        {
          "internalType": "bool",
          "name": "",
          "type": "bool"
        }
      ],
      "stateMutability": "nonpayable",
      "type": "function"
    },
    {
      "inputs": [
        {
          "internalType": "address",
          "name": "account",
          "type": "address"
        }
      ],
      "name": "balanceOf",
      "outputs": [
        {
          "internalType": "uint256",
          "name": "",
          "type": "uint256"
        }
      ],
      "stateMutability": "view",
      "type": "function"
    },
    {
      "inputs": [],
      "name": "decimals",
      "outputs": [
        {
          "internalType": "uint8",
          "name": "",
          "type": "uint8"
        }
      ],
      "stateMutability": "view",
      "type": "function"
    },
    {
      "inputs": [
        {
          "components": [
            {
              "internalType": "string",
              "name": "_name",
              "type": "string"
            },
            {
              "internalType": "string",
              "name": "_symbol",
              "type": "string"
            },
            {
              "internalType": "string",
              "name": "_metadataURI",
              "type": "string"
            },
            {
              "internalType": "uint256",
              "name": "_tokenSupplyAfterFee",
              "type": "uint256"
            },
            {
              "internalType": "uint256",
              "name": "_platformFee",
              "type": "uint256"
            },
            {
              "internalType": "uint256",
              "name": "_communitySupply",
              "type": "uint256"
            },
            {
              "internalType": "uint256",
              "name": "_marketCapThreshold",
              "type": "uint256"
            },
            {
              "internalType": "address",
              "name": "_launchboxExchangeImplementation",
              "type": "address"
            },
            {
              "internalType": "address",
              "name": "_platformFeeAddress",
              "type": "address"
            },
            {
              "internalType": "address",
              "name": "_router",
              "type": "address"
            },
            {
              "internalType": "address",
              "name": "_communityTreasuryOwner",
              "type": "address"
            }
          ],
          "internalType": "struct LaunchboxERC20.InitializeParams",
          "name": "params",
          "type": "tuple"
        }
      ],
      "name": "initialize",
      "outputs": [
        {
          "internalType": "address",
          "name": "",
          "type": "address"
        }
      ],
      "stateMutability": "payable",
      "type": "function"
    },
    {
      "inputs": [],
      "name": "launchboxExchange",
      "outputs": [
        {
          "internalType": "address payable",
          "name": "",
          "type": "address"
        }
      ],
      "stateMutability": "view",
      "type": "function"
    },
    {
      "inputs": [],
      "name": "metadataURI",
      "outputs": [
        {
          "internalType": "string",
          "name": "",
          "type": "string"
        }
      ],
      "stateMutability": "view",
      "type": "function"
    },
    {
      "inputs": [],
      "name": "name",
      "outputs": [
        {
          "internalType": "string",
          "name": "",
          "type": "string"
        }
      ],
      "stateMutability": "view",
      "type": "function"
    },
    {
      "inputs": [],
      "name": "symbol",
      "outputs": [
        {
          "internalType": "string",
          "name": "",
          "type": "string"
        }
      ],
      "stateMutability": "view",
      "type": "function"
    },
    {
      "inputs": [],
      "name": "totalSupply",
      "outputs": [
        {
          "internalType": "uint256",
          "name": "",
          "type": "uint256"
        }
      ],
      "stateMutability": "view",
      "type": "function"
    },
    {
      "inputs": [
        {
          "internalType": "address",
          "name": "to",
          "type": "address"
        },
        {
          "internalType": "uint256",
          "name": "value",
          "type": "uint256"
        }
      ],
      "name": "transfer",
      "outputs": [
        {
          "internalType": "bool",
          "name": "",
          "type": "bool"
        }
      ],
      "stateMutability": "nonpayable",
      "type": "function"
    },
    {
      "inputs": [
        {
          "internalType": "address",
          "name": "from",
          "type": "address"
        },
        {
          "internalType": "address",
          "name": "to",
          "type": "address"
        },
        {
          "internalType": "uint256",
          "name": "value",
          "type": "uint256"
        }
      ],
      "name": "transferFrom",
      "outputs": [
        {
          "internalType": "bool",
          "name": "",
          "type": "bool"
        }
      ],
      "stateMutability": "nonpayable",
      "type": "function"
    }
  ],
  "bytecode": {
    "object": "0x608060405234801561001057600080fd5b5061001961001e565b6100d0565b7ff0c57e16840df040f15088dc2f81fe391c3923bec73e23a9662efc9c229c6a00805468010000000000000000900460ff161561006e5760405163f92ee8a960e01b815260040160405180910390fd5b80546001600160401b03908116146100cd5780546001600160401b0319166001600160401b0390811782556040519081527fc7f505b2f371ae2175ee4913f4499e1f2633a7b5936321eed1cdaeb6115181d29060200160405180910390a15b50565b611543806100df6000396000f3fe6080604052600436106100c75760003560e01c80634b0a7f8b1161007457806395d89b411161004e57806395d89b411461027d578063a9059cbb14610292578063dd62ed3e146102b257600080fd5b80634b0a7f8b146101b657806370a08231146101ee5780638e14baf01461025057600080fd5b806318160ddd116100a557806318160ddd1461013c57806323b872dd1461017a578063313ce5671461019a57600080fd5b806303ee438c146100cc57806306fdde03146100f7578063095ea7b31461010c575b600080fd5b3480156100d857600080fd5b506100e1610324565b6040516100ee9190610fd2565b60405180910390f35b34801561010357600080fd5b506100e16103b2565b34801561011857600080fd5b5061012c610127366004611062565b610487565b60405190151581526020016100ee565b34801561014857600080fd5b507f52c63247e1f47db19d5ce0460030c497f067ca4cebf71ba98eeadabe20bace02545b6040519081526020016100ee565b34801561018657600080fd5b5061012c61019536600461108c565b6104a1565b3480156101a657600080fd5b50604051601281526020016100ee565b6101c96101c43660046111cc565b6104c5565b60405173ffffffffffffffffffffffffffffffffffffffff90911681526020016100ee565b3480156101fa57600080fd5b5061016c6102093660046112f9565b73ffffffffffffffffffffffffffffffffffffffff1660009081527f52c63247e1f47db19d5ce0460030c497f067ca4cebf71ba98eeadabe20bace00602052604090205490565b34801561025c57600080fd5b506001546101c99073ffffffffffffffffffffffffffffffffffffffff1681565b34801561028957600080fd5b506100e16108af565b34801561029e57600080fd5b5061012c6102ad366004611062565b610900565b3480156102be57600080fd5b5061016c6102cd36600461131b565b73ffffffffffffffffffffffffffffffffffffffff91821660009081527f52c63247e1f47db19d5ce0460030c497f067ca4cebf71ba98eeadabe20bace016020908152604080832093909416825291909152205490565b600080546103319061134e565b80601f016020809104026020016040519081016040528092919081815260200182805461035d9061134e565b80156103aa5780601f1061037f576101008083540402835291602001916103aa565b820191906000526020600020905b81548152906001019060200180831161038d57829003601f168201915b505050505081565b7f52c63247e1f47db19d5ce0460030c497f067ca4cebf71ba98eeadabe20bace0380546060917f52c63247e1f47db19d5ce0460030c497f067ca4cebf71ba98eeadabe20bace00916104039061134e565b80601f016020809104026020016040519081016040528092919081815260200182805461042f9061134e565b801561047c5780601f106104515761010080835404028352916020019161047c565b820191906000526020600020905b81548152906001019060200180831161045f57829003601f168201915b505050505091505090565b60003361049581858561090e565b60019150505b92915050565b6000336104af858285610920565b6104ba858585610a13565b506001949350505050565b7ff0c57e16840df040f15088dc2f81fe391c3923bec73e23a9662efc9c229c6a0080546000919068010000000000000000810460ff16159067ffffffffffffffff1683811580156105135750825b905060008267ffffffffffffffff1660011480156105305750303b155b90508115801561053e575080155b15610575576040517ff92ee8a900000000000000000000000000000000000000000000000000000000815260040160405180910390fd5b84547fffffffffffffffffffffffffffffffffffffffffffffffff000000000000000016600117855583156105d65784547fffffffffffffffffffffffffffffffffffffffffffffff00ffffffffffffffff16680100000000000000001785555b6105e887600001518860200151610abe565b866040015151600003610627576040517f35b2646f00000000000000000000000000000000000000000000000000000000815260040160405180910390fd5b8660600151600003610665576040517f2937fa8c00000000000000000000000000000000000000000000000000000000815260040160405180910390fd5b604087015160009061067790826113ef565b506106858760e00151610ad4565b600180547fffffffffffffffffffffffff00000000000000000000000000000000000000001673ffffffffffffffffffffffffffffffffffffffff929092169190911790556080870151156107395761010087015173ffffffffffffffffffffffffffffffffffffffff16610726576040517f37cc102a00000000000000000000000000000000000000000000000000000000815260040160405180910390fd5b6107398761010001518860800151610b6c565b60a087015115610756576107568761014001518860a00151610b6c565b600154606088015161077e9173ffffffffffffffffffffffffffffffffffffffff1690610b6c565b600154606088015160c08901516101208a01516040517f9e3d87cd0000000000000000000000000000000000000000000000000000000081523060048201526024810193909352604483019190915273ffffffffffffffffffffffffffffffffffffffff908116606483015290911690639e3d87cd90608401600060405180830381600087803b15801561081157600080fd5b505af1158015610825573d6000803e3d6000fd5b505060015473ffffffffffffffffffffffffffffffffffffffff169750505083156108a55784547fffffffffffffffffffffffffffffffffffffffffffffff00ffffffffffffffff168555604051600181527fc7f505b2f371ae2175ee4913f4499e1f2633a7b5936321eed1cdaeb6115181d29060200160405180910390a15b5050505050919050565b7f52c63247e1f47db19d5ce0460030c497f067ca4cebf71ba98eeadabe20bace0480546060917f52c63247e1f47db19d5ce0460030c497f067ca4cebf71ba98eeadabe20bace00916104039061134e565b600033610495818585610a13565b61091b8383836001610bc8565b505050565b73ffffffffffffffffffffffffffffffffffffffff83811660009081527f52c63247e1f47db19d5ce0460030c497f067ca4cebf71ba98eeadabe20bace0160209081526040808320938616835292905220547fffffffffffffffffffffffffffffffffffffffffffffffffffffffffffffffff8114610a0d57818110156109fe576040517ffb8f41b200000000000000000000000000000000000000000000000000000000815273ffffffffffffffffffffffffffffffffffffffff8416600482015260248101829052604481018390526064015b60405180910390fd5b610a0d84848484036000610bc8565b50505050565b73ffffffffffffffffffffffffffffffffffffffff8316610a63576040517f96c6fd1e000000000000000000000000000000000000000000000000000000008152600060048201526024016109f5565b73ffffffffffffffffffffffffffffffffffffffff8216610ab3576040517fec442f05000000000000000000000000000000000000000000000000000000008152600060048201526024016109f5565b61091b838383610d35565b610ac6610f06565b610ad08282610f6f565b5050565b6000763d602d80600a3d3981f3363d3d373d3d3d363d730000008260601b60e81c176000526e5af43d82803e903d91602b57fd5bf38260781b17602052603760096000f0905073ffffffffffffffffffffffffffffffffffffffff8116610b67576040517fc2f868f400000000000000000000000000000000000000000000000000000000815260040160405180910390fd5b919050565b73ffffffffffffffffffffffffffffffffffffffff8216610bbc576040517fec442f05000000000000000000000000000000000000000000000000000000008152600060048201526024016109f5565b610ad060008383610d35565b7f52c63247e1f47db19d5ce0460030c497f067ca4cebf71ba98eeadabe20bace0073ffffffffffffffffffffffffffffffffffffffff8516610c39576040517fe602df05000000000000000000000000000000000000000000000000000000008152600060048201526024016109f5565b73ffffffffffffffffffffffffffffffffffffffff8416610c89576040517f94280d62000000000000000000000000000000000000000000000000000000008152600060048201526024016109f5565b73ffffffffffffffffffffffffffffffffffffffff808616600090815260018301602090815260408083209388168352929052208390558115610d2e578373ffffffffffffffffffffffffffffffffffffffff168573ffffffffffffffffffffffffffffffffffffffff167f8c5be1e5ebec7d5bd14f71427d1e84f3dd0314c0f7b2291e5b200ac8c7c3b92585604051610d2591815260200190565b60405180910390a35b5050505050565b7f52c63247e1f47db19d5ce0460030c497f067ca4cebf71ba98eeadabe20bace0073ffffffffffffffffffffffffffffffffffffffff8416610d905781816002016000828254610d859190611509565b90915550610e429050565b73ffffffffffffffffffffffffffffffffffffffff841660009081526020829052604090205482811015610e16576040517fe450d38c00000000000000000000000000000000000000000000000000000000815273ffffffffffffffffffffffffffffffffffffffff8616600482015260248101829052604481018490526064016109f5565b73ffffffffffffffffffffffffffffffffffffffff851660009081526020839052604090209083900390555b73ffffffffffffffffffffffffffffffffffffffff8316610e6d576002810180548390039055610e99565b73ffffffffffffffffffffffffffffffffffffffff831660009081526020829052604090208054830190555b8273ffffffffffffffffffffffffffffffffffffffff168473ffffffffffffffffffffffffffffffffffffffff167fddf252ad1be2c89b69c2b068fc378daa952ba7f163c4a11628f55a4df523b3ef84604051610ef891815260200190565b60405180910390a350505050565b7ff0c57e16840df040f15088dc2f81fe391c3923bec73e23a9662efc9c229c6a005468010000000000000000900460ff16610f6d576040517fd7e6bcf800000000000000000000000000000000000000000000000000000000815260040160405180910390fd5b565b610f77610f06565b7f52c63247e1f47db19d5ce0460030c497f067ca4cebf71ba98eeadabe20bace007f52c63247e1f47db19d5ce0460030c497f067ca4cebf71ba98eeadabe20bace03610fc384826113ef565b5060048101610a0d83826113ef565b600060208083528351808285015260005b81811015610fff57858101830151858201604001528201610fe3565b5060006040828601015260407fffffffffffffffffffffffffffffffffffffffffffffffffffffffffffffffe0601f8301168501019250505092915050565b803573ffffffffffffffffffffffffffffffffffffffff81168114610b6757600080fd5b6000806040838503121561107557600080fd5b61107e8361103e565b946020939093013593505050565b6000806000606084860312156110a157600080fd5b6110aa8461103e565b92506110b86020850161103e565b9150604084013590509250925092565b7f4e487b7100000000000000000000000000000000000000000000000000000000600052604160045260246000fd5b604051610160810167ffffffffffffffff8111828210171561111b5761111b6110c8565b60405290565b600082601f83011261113257600080fd5b813567ffffffffffffffff8082111561114d5761114d6110c8565b604051601f83017fffffffffffffffffffffffffffffffffffffffffffffffffffffffffffffffe0908116603f01168101908282118183101715611193576111936110c8565b816040528381528660208588010111156111ac57600080fd5b836020870160208301376000602085830101528094505050505092915050565b6000602082840312156111de57600080fd5b813567ffffffffffffffff808211156111f657600080fd5b90830190610160828603121561120b57600080fd5b6112136110f7565b82358281111561122257600080fd5b61122e87828601611121565b82525060208301358281111561124357600080fd5b61124f87828601611121565b60208301525060408301358281111561126757600080fd5b61127387828601611121565b604083015250606083013560608201526080830135608082015260a083013560a082015260c083013560c08201526112ad60e0840161103e565b60e082015261010091506112c282840161103e565b8282015261012091506112d682840161103e565b8282015261014091506112ea82840161103e565b91810191909152949350505050565b60006020828403121561130b57600080fd5b6113148261103e565b9392505050565b6000806040838503121561132e57600080fd5b6113378361103e565b91506113456020840161103e565b90509250929050565b600181811c9082168061136257607f821691505b60208210810361139b577f4e487b7100000000000000000000000000000000000000000000000000000000600052602260045260246000fd5b50919050565b601f82111561091b57600081815260208120601f850160051c810160208610156113c85750805b601f850160051c820191505b818110156113e7578281556001016113d4565b505050505050565b815167ffffffffffffffff811115611409576114096110c8565b61141d81611417845461134e565b846113a1565b602080601f831160018114611470576000841561143a5750858301515b7fffffffffffffffffffffffffffffffffffffffffffffffffffffffffffffffff600386901b1c1916600185901b1785556113e7565b6000858152602081207fffffffffffffffffffffffffffffffffffffffffffffffffffffffffffffffe08616915b828110156114bd5788860151825594840194600190910190840161149e565b50858210156114f957878501517fffffffffffffffffffffffffffffffffffffffffffffffffffffffffffffffff600388901b60f8161c191681555b5050505050600190811b01905550565b8082018082111561049b577f4e487b7100000000000000000000000000000000000000000000000000000000600052601160045260246000fd",
    "linkReferences": {}
  },
  "methodIdentifiers": {
    "allowance(address,address)": "dd62ed3e",
    "approve(address,uint256)": "095ea7b3",
    "balanceOf(address)": "70a08231",
    "decimals()": "313ce567",
    "initialize((string,string,string,uint256,uint256,uint256,uint256,address,address,address,address))": "4b0a7f8b",
    "launchboxExchange()": "8e14baf0",
    "metadataURI()": "03ee438c",
    "name()": "06fdde03",
    "symbol()": "95d89b41",
    "totalSupply()": "18160ddd",
    "transfer(address,uint256)": "a9059cbb",
    "transferFrom(address,address,uint256)": "23b872dd"
  },
  "id": 50
}