{
    "abi": [
        {
            "type": "receive",
            "stateMutability": "payable"
        },
        {
            "type": "function",
            "name": "FEE_DENOMINATOR",
            "inputs": [],
            "outputs": [
                {
                    "name": "",
                    "type": "uint256",
                    "internalType": "uint256"
                }
            ],
            "stateMutability": "view"
        },
        {
            "type": "function",
            "name": "V_ETH_BALANCE",
            "inputs": [],
            "outputs": [
                {
                    "name": "",
                    "type": "uint256",
                    "internalType": "uint256"
                }
            ],
            "stateMutability": "view"
        },
        {
            "type": "function",
            "name": "WETH_USDC_PAIR",
            "inputs": [],
            "outputs": [
                {
                    "name": "",
                    "type": "address",
                    "internalType": "contract IPool"
                }
            ],
            "stateMutability": "view"
        },
        {
            "type": "function",
            "name": "aerodromeRouter",
            "inputs": [],
            "outputs": [
                {
                    "name": "",
                    "type": "address",
                    "internalType": "contract IRouter"
                }
            ],
            "stateMutability": "view"
        },
        {
            "type": "function",
            "name": "buyTokens",
            "inputs": [],
            "outputs": [],
            "stateMutability": "payable"
        },
        {
            "type": "function",
            "name": "calculatePurchaseTokenOut",
            "inputs": [
                {
                    "name": "amountETHIn",
                    "type": "uint256",
                    "internalType": "uint256"
                }
            ],
            "outputs": [
                {
                    "name": "",
                    "type": "uint256",
                    "internalType": "uint256"
                },
                {
                    "name": "",
                    "type": "uint256",
                    "internalType": "uint256"
                }
            ],
            "stateMutability": "view"
        },
        {
            "type": "function",
            "name": "calculateSaleTokenOut",
            "inputs": [
                {
                    "name": "amountTokenIn",
                    "type": "uint256",
                    "internalType": "uint256"
                }
            ],
            "outputs": [
                {
                    "name": "",
                    "type": "uint256",
                    "internalType": "uint256"
                },
                {
                    "name": "",
                    "type": "uint256",
                    "internalType": "uint256"
                }
            ],
            "stateMutability": "view"
        },
        {
            "type": "function",
            "name": "ethBalance",
            "inputs": [],
            "outputs": [
                {
                    "name": "",
                    "type": "uint256",
                    "internalType": "uint256"
                }
            ],
            "stateMutability": "view"
        },
        {
            "type": "function",
            "name": "feeReceiver",
            "inputs": [],
            "outputs": [
                {
                    "name": "",
                    "type": "address",
                    "internalType": "address"
                }
            ],
            "stateMutability": "view"
        },
        {
            "type": "function",
            "name": "getTokenPriceinETH",
            "inputs": [],
            "outputs": [
                {
                    "name": "ethAmount",
                    "type": "uint256",
                    "internalType": "uint256"
                }
            ],
            "stateMutability": "view"
        },
        {
            "type": "function",
            "name": "initialize",
            "inputs": [
                {
                    "name": "_tokenAddress",
                    "type": "address",
                    "internalType": "address"
                },
                {
                    "name": "_feeReceiver",
                    "type": "address",
                    "internalType": "address"
                },
                {
                    "name": "_tradeFee",
                    "type": "uint256",
                    "internalType": "uint256"
                },
                {
                    "name": "_maxSupply",
                    "type": "uint256",
                    "internalType": "uint256"
                },
                {
                    "name": "_marketCapThreshold",
                    "type": "uint256",
                    "internalType": "uint256"
                },
                {
                    "name": "_aerodromeRouter",
                    "type": "address",
                    "internalType": "address"
                }
            ],
            "outputs": [],
            "stateMutability": "payable"
        },
        {
            "type": "function",
            "name": "launchboxErc20Balance",
            "inputs": [],
            "outputs": [
                {
                    "name": "",
                    "type": "uint256",
                    "internalType": "uint256"
                }
            ],
            "stateMutability": "view"
        },
        {
            "type": "function",
            "name": "marketCap",
            "inputs": [],
            "outputs": [
                {
                    "name": "",
                    "type": "uint256",
                    "internalType": "uint256"
                }
            ],
            "stateMutability": "view"
        },
        {
            "type": "function",
            "name": "marketCapThreshold",
            "inputs": [],
            "outputs": [
                {
                    "name": "",
                    "type": "uint256",
                    "internalType": "uint256"
                }
            ],
            "stateMutability": "view"
        },
        {
            "type": "function",
            "name": "maxSupply",
            "inputs": [],
            "outputs": [
                {
                    "name": "",
                    "type": "uint256",
                    "internalType": "uint256"
                }
            ],
            "stateMutability": "view"
        },
        {
            "type": "function",
            "name": "saleActive",
            "inputs": [],
            "outputs": [
                {
                    "name": "",
                    "type": "bool",
                    "internalType": "bool"
                }
            ],
            "stateMutability": "view"
        },
        {
            "type": "function",
            "name": "sellTokens",
            "inputs": [
                {
                    "name": "tokenAmount",
                    "type": "uint256",
                    "internalType": "uint256"
                }
            ],
            "outputs": [],
            "stateMutability": "nonpayable"
        },
        {
            "type": "function",
            "name": "token",
            "inputs": [],
            "outputs": [
                {
                    "name": "",
                    "type": "address",
                    "internalType": "contract IERC20"
                }
            ],
            "stateMutability": "view"
        },
        {
            "type": "function",
            "name": "tradeFee",
            "inputs": [],
            "outputs": [
                {
                    "name": "",
                    "type": "uint256",
                    "internalType": "uint256"
                }
            ],
            "stateMutability": "view"
        },
        {
            "type": "event",
            "name": "BondingEnded",
            "inputs": [
                {
                    "name": "totalEth",
                    "type": "uint256",
                    "indexed": false,
                    "internalType": "uint256"
                },
                {
                    "name": "totalTokens",
                    "type": "uint256",
                    "indexed": false,
                    "internalType": "uint256"
                }
            ],
            "anonymous": false
        },
        {
            "type": "event",
            "name": "ExchangeInitialized",
            "inputs": [
                {
                    "name": "token",
                    "type": "address",
                    "indexed": false,
                    "internalType": "address"
                },
                {
                    "name": "tradeFee",
                    "type": "uint256",
                    "indexed": false,
                    "internalType": "uint256"
                },
                {
                    "name": "feeReceiver",
                    "type": "address",
                    "indexed": false,
                    "internalType": "address"
                },
                {
                    "name": "maxSupply",
                    "type": "uint256",
                    "indexed": false,
                    "internalType": "uint256"
                }
            ],
            "anonymous": false
        },
        {
            "type": "event",
            "name": "TokenBuy",
            "inputs": [
                {
                    "name": "ethIn",
                    "type": "uint256",
                    "indexed": false,
                    "internalType": "uint256"
                },
                {
                    "name": "tokenOut",
                    "type": "uint256",
                    "indexed": false,
                    "internalType": "uint256"
                },
                {
                    "name": "fee",
                    "type": "uint256",
                    "indexed": false,
                    "internalType": "uint256"
                },
                {
                    "name": "buyer",
                    "type": "address",
                    "indexed": false,
                    "internalType": "address"
                }
            ],
            "anonymous": false
        },
        {
            "type": "event",
            "name": "TokenSell",
            "inputs": [
                {
                    "name": "tokenIn",
                    "type": "uint256",
                    "indexed": false,
                    "internalType": "uint256"
                },
                {
                    "name": "ethOut",
                    "type": "uint256",
                    "indexed": false,
                    "internalType": "uint256"
                },
                {
                    "name": "fee",
                    "type": "uint256",
                    "indexed": false,
                    "internalType": "uint256"
                },
                {
                    "name": "seller",
                    "type": "address",
                    "indexed": false,
                    "internalType": "address"
                }
            ],
            "anonymous": false
        },
        {
            "type": "error",
            "name": "ExchangeInactive",
            "inputs": []
        },
        {
            "type": "error",
            "name": "FeeTransferFailed",
            "inputs": []
        },
        {
            "type": "error",
            "name": "MaxSupplyCannotBeLowerThanSuppliedTokens",
            "inputs": []
        },
        {
            "type": "error",
            "name": "NotEnoughETH",
            "inputs": []
        },
        {
            "type": "error",
            "name": "PurchaseExceedsSupply",
            "inputs": []
        }
    ],
    "bytecode": {
        "object": "0x608060405234801561001057600080fd5b50611554806100206000396000f3fe6080604052600436106101485760003560e01c8063b1a5d12d116100c0578063d73792a911610074578063f96a80e811610059578063f96a80e814610374578063f995c43d1461038a578063fc0c546a146103b257600080fd5b8063d73792a914610331578063e18e3a681461034757600080fd5b8063b6da859b116100a5578063b6da859b146102fe578063d0febe4c14610313578063d5abeb011461031b57600080fd5b8063b1a5d12d14610299578063b3f00674146102ac57600080fd5b806368428a1b1161011757806370b0aec5116100fc57806370b0aec51461022e578063a367895614610244578063ac7629571461027957600080fd5b806368428a1b146101cc5780636c11bcd31461020e57600080fd5b80631eef4b781461015c57806324bcdfbd1461018b5780632c135b93146101a15780634e6630b0146101b657600080fd5b36610157576101556103df565b005b600080fd5b34801561016857600080fd5b506101786714d1120d7b16000081565b6040519081526020015b60405180910390f35b34801561019757600080fd5b5061017860055481565b3480156101ad57600080fd5b5061017861043f565b3480156101c257600080fd5b5061017860045481565b3480156101d857600080fd5b506006546101fe9074010000000000000000000000000000000000000000900460ff1681565b6040519015158152602001610182565b34801561021a57600080fd5b5061015561022936600461139d565b61044e565b34801561023a57600080fd5b5061017860025481565b34801561025057600080fd5b5061026461025f36600461139d565b6104af565b60408051928352602083019190915201610182565b34801561028557600080fd5b5061026461029436600461139d565b6104e6565b6101556102a73660046113df565b610513565b3480156102b857600080fd5b506006546102d99073ffffffffffffffffffffffffffffffffffffffff1681565b60405173ffffffffffffffffffffffffffffffffffffffff9091168152602001610182565b34801561030a57600080fd5b506101786106f0565b6101556103df565b34801561032757600080fd5b5061017860015481565b34801561033d57600080fd5b5061017861271081565b34801561035357600080fd5b506007546102d99073ffffffffffffffffffffffffffffffffffffffff1681565b34801561038057600080fd5b5061017860035481565b34801561039657600080fd5b506102d973cdac0d6c6c59727a65f871236188350531885c4381565b3480156103be57600080fd5b506000546102d99073ffffffffffffffffffffffffffffffffffffffff1681565b60065474010000000000000000000000000000000000000000900460ff16610433576040517f6fa0109000000000000000000000000000000000000000000000000000000000815260040160405180910390fd5b61043d34336106fa565b565b6000610449610939565b905090565b60065474010000000000000000000000000000000000000000900460ff166104a2576040517f6fa0109000000000000000000000000000000000000000000000000000000000815260040160405180910390fd5b6104ac81336109de565b50565b600080600060035490506104dc84826714d1120d7b1600006004546104d4919061146d565b600554610cbc565b9250925050915091565b600080600060035490506104dc846714d1120d7b16000060045461050a919061146d565b83600554610cbc565b600680546000805473ffffffffffffffffffffffffffffffffffffffff8a81167fffffffffffffffffffffffff000000000000000000000000000000000000000092831681179093556007805487831693169290921790915560058890556001879055600286905588167fffffffffffffffffffffff0000000000000000000000000000000000000000009092169190911774010000000000000000000000000000000000000000179091556040517f70a082310000000000000000000000000000000000000000000000000000000081523060048201526370a0823190602401602060405180830381865afa158015610611573d6000803e3d6000fd5b505050506040513d601f19601f820116820180604052508101906106359190611486565b60035534156106485761064834336106fa565b47600455600354600154101561068a576040517f94a04ecc00000000000000000000000000000000000000000000000000000000815260040160405180910390fd5b6040805173ffffffffffffffffffffffffffffffffffffffff8881168252602082018790528716818301526060810185905290517f227bf196f6443a8de89e5ca113a24adbc095a4c021307380986916f9c8c995f99181900360800190a1505050505050565b6000610449610f2f565b600080610706846104e6565b91509150600354821115610746576040517f66f7823b00000000000000000000000000000000000000000000000000000000815260040160405180910390fd5b80156107e85760065460405160009173ffffffffffffffffffffffffffffffffffffffff169083908381818185875af1925050503d80600081146107a6576040519150601f19603f3d011682016040523d82523d6000602084013e6107ab565b606091505b50509050806107e6576040517f4033e4e300000000000000000000000000000000000000000000000000000000815260040160405180910390fd5b505b81600360008282546107fa919061149f565b9091555061080a9050818561149f565b6004600082825461081b919061146d565b90915550506000546040517fa9059cbb00000000000000000000000000000000000000000000000000000000815273ffffffffffffffffffffffffffffffffffffffff8581166004830152602482018590529091169063a9059cbb906044016020604051808303816000875af1158015610899573d6000803e3d6000fd5b505050506040513d601f19601f820116820180604052508101906108bd91906114b2565b50604080518581526020810184905290810182905273ffffffffffffffffffffffffffffffffffffffff841660608201527f7480906ebd104a6d59b01553a078610f77a08ac2216d4b046f920bed1e5108ea9060800160405180910390a1600254610926610939565b1061093357610933610f66565b50505050565b600080610944610f2f565b90506000610950611140565b9050722cd76fe086b93ce2f768a00b22a000000000008211156109a957670de0b6b3a76400008161098182856114d4565b61098b919061150f565b61099591906114d4565b6001546109a2919061150f565b9250505090565b670de0b6b3a7640000806109bd838561150f565b6109c791906114d4565b6001546109d4919061150f565b6109a291906114d4565b6000806109ea846104af565b915091508160046000828254610a00919061149f565b90915550610a109050818561149f565b60036000828254610a21919061146d565b90915550506000546040517f23b872dd00000000000000000000000000000000000000000000000000000000815273ffffffffffffffffffffffffffffffffffffffff858116600483015230602483015260448201879052909116906323b872dd906064016020604051808303816000875af1158015610aa5573d6000803e3d6000fd5b505050506040513d601f19601f82011682018060405250810190610ac991906114b2565b610b34576040517f08c379a000000000000000000000000000000000000000000000000000000000815260206004820152600f60248201527f5472616e73666572206661696c6564000000000000000000000000000000000060448201526064015b60405180910390fd5b8015610bdb576000546006546040517fa9059cbb00000000000000000000000000000000000000000000000000000000815273ffffffffffffffffffffffffffffffffffffffff91821660048201526024810184905291169063a9059cbb906044016020604051808303816000875af1158015610bb5573d6000803e3d6000fd5b505050506040513d601f19601f82011682018060405250810190610bd991906114b2565b505b81471015610c15576040517f583aa02600000000000000000000000000000000000000000000000000000000815260040160405180910390fd5b60405173ffffffffffffffffffffffffffffffffffffffff84169083156108fc029084906000818181858888f19350505050158015610c58573d6000803e3d6000fd5b50604080518581526020810184905290810182905273ffffffffffffffffffffffffffffffffffffffff841660608201527f5f8ccb668d2a9f5f48270b12bfb6a77914b45591e9ca6f9f8a87830918c722ed9060800160405180910390a150505050565b60008060008611610d29576040517f08c379a000000000000000000000000000000000000000000000000000000000815260206004820181905260248201527f416d6f756e7420696e206d7573742062652067726561746572207468616e20306044820152606401610b2b565b612710831115610dbb576040517f08c379a000000000000000000000000000000000000000000000000000000000815260206004820152602c60248201527f547261646520666565206d757374206265206c657373207468616e206f72206560448201527f7175616c20746f203130302500000000000000000000000000000000000000006064820152608401610b2b565b600085118015610dcb5750600084115b610e31576040517f08c379a000000000000000000000000000000000000000000000000000000000815260206004820152601f60248201527f5265736572766573206d7573742062652067726561746572207468616e2030006044820152606401610b2b565b6000610e4b87610e438661271061149f565b612710611204565b90506000610e5b82876001611204565b9050600082610e6c6127108a61150f565b610e76919061146d565b905060008111610f08576040517f08c379a000000000000000000000000000000000000000000000000000000000815260206004820152602260248201527f44656e6f6d696e61746f72206d7573742062652067726561746572207468616e60448201527f20300000000000000000000000000000000000000000000000000000000000006064820152608401610b2b565b610f158261271083611204565b9450610f21838a61149f565b935050505094509492505050565b60006003546004546714d1120d7b160000610f4a919061146d565b610f5c90670de0b6b3a764000061150f565b61044991906114d4565b600680547fffffffffffffffffffffff00ffffffffffffffffffffffffffffffffffffffff169055600354600480546000546007546040517f095ea7b300000000000000000000000000000000000000000000000000000000815273ffffffffffffffffffffffffffffffffffffffff9182169481019490945260248401859052919291169063095ea7b3906044016020604051808303816000875af1158015611014573d6000803e3d6000fd5b505050506040513d601f19601f8201168201806040525081019061103891906114b2565b50600754600080546040517fb7e0d4c000000000000000000000000000000000000000000000000000000000815273ffffffffffffffffffffffffffffffffffffffff9182166004820152602481018390526044810186905260648101839052608481019290925261dead60a48301524260c48301529091169063b7e0d4c090839060e40160606040518083038185885af11580156110db573d6000803e3d6000fd5b50505050506040513d601f19601f820116820180604052508101906111009190611526565b505060408051838152602081018590527f0fb5fe849b3f01f99b1c15ca5536d36fe2ca08bd7c0cfe4e6ad183586139029192500160405180910390a15050565b600080600073cdac0d6c6c59727a65f871236188350531885c4373ffffffffffffffffffffffffffffffffffffffff16630902f1ac6040518163ffffffff1660e01b8152600401606060405180830381865afa1580156111a4573d6000803e3d6000fd5b505050506040513d601f19601f820116820180604052508101906111c89190611526565b5090925090506000826111e08364e8d4a5100061150f565b6111f290670de0b6b3a764000061150f565b6111fc91906114d4565b949350505050565b600080807fffffffffffffffffffffffffffffffffffffffffffffffffffffffffffffffff8587098587029250828110838203039150508060000361125b576000841161125057600080fd5b508290049050611396565b80841161126757600080fd5b60008486880980840393811190920391905060006112878619600161146d565b86169586900495938490049360008190030460010190506112a8818461150f565b9093179260006112b987600361150f565b60021890506112c8818861150f565b6112d390600261149f565b6112dd908261150f565b90506112e9818861150f565b6112f490600261149f565b6112fe908261150f565b905061130a818861150f565b61131590600261149f565b61131f908261150f565b905061132b818861150f565b61133690600261149f565b611340908261150f565b905061134c818861150f565b61135790600261149f565b611361908261150f565b905061136d818861150f565b61137890600261149f565b611382908261150f565b905061138e818661150f565b955050505050505b9392505050565b6000602082840312156113af57600080fd5b5035919050565b803573ffffffffffffffffffffffffffffffffffffffff811681146113da57600080fd5b919050565b60008060008060008060c087890312156113f857600080fd5b611401876113b6565b955061140f602088016113b6565b945060408701359350606087013592506080870135915061143260a088016113b6565b90509295509295509295565b7f4e487b7100000000000000000000000000000000000000000000000000000000600052601160045260246000fd5b808201808211156114805761148061143e565b92915050565b60006020828403121561149857600080fd5b5051919050565b818103818111156114805761148061143e565b6000602082840312156114c457600080fd5b8151801515811461139657600080fd5b60008261150a577f4e487b7100000000000000000000000000000000000000000000000000000000600052601260045260246000fd5b500490565b80820281158282048414176114805761148061143e565b60008060006060848603121561153b57600080fd5b835192506020840151915060408401519050925092509256",
        "linkReferences": {}
    },
    "methodIdentifiers": {
        "FEE_DENOMINATOR()": "d73792a9",
        "V_ETH_BALANCE()": "1eef4b78",
        "WETH_USDC_PAIR()": "f995c43d",
        "aerodromeRouter()": "e18e3a68",
        "buyTokens()": "d0febe4c",
        "calculatePurchaseTokenOut(uint256)": "ac762957",
        "calculateSaleTokenOut(uint256)": "a3678956",
        "ethBalance()": "4e6630b0",
        "feeReceiver()": "b3f00674",
        "getTokenPriceinETH()": "b6da859b",
        "initialize(address,address,uint256,uint256,uint256,address)": "b1a5d12d",
        "launchboxErc20Balance()": "f96a80e8",
        "marketCap()": "2c135b93",
        "marketCapThreshold()": "70b0aec5",
        "maxSupply()": "d5abeb01",
        "saleActive()": "68428a1b",
        "sellTokens(uint256)": "6c11bcd3",
        "token()": "fc0c546a",
        "tradeFee()": "24bcdfbd"
    },
    "id": 33
}